{
  "address": "0x4EBB6b3Cf77d8d04645b1EE78CB11A399AC9c8c1",
  "abi": [
    {
      "inputs": [
        {
          "internalType": "address",
          "name": "_endpoint",
          "type": "address"
        }
      ],
      "stateMutability": "nonpayable",
      "type": "constructor"
    },
    {
      "inputs": [],
      "name": "InvalidDelegate",
      "type": "error"
    },
    {
      "inputs": [],
      "name": "InvalidEndpointCall",
      "type": "error"
    },
    {
      "inputs": [],
      "name": "LzTokenUnavailable",
      "type": "error"
    },
    {
      "inputs": [
        {
          "internalType": "uint32",
          "name": "eid",
          "type": "uint32"
        }
      ],
      "name": "NoPeer",
      "type": "error"
    },
    {
      "inputs": [
        {
          "internalType": "uint256",
          "name": "msgValue",
          "type": "uint256"
        }
      ],
      "name": "NotEnoughNative",
      "type": "error"
    },
    {
      "inputs": [
        {
          "internalType": "address",
          "name": "addr",
          "type": "address"
        }
      ],
      "name": "OnlyEndpoint",
      "type": "error"
    },
    {
      "inputs": [
        {
          "internalType": "uint32",
          "name": "eid",
          "type": "uint32"
        },
        {
          "internalType": "bytes32",
          "name": "sender",
          "type": "bytes32"
        }
      ],
      "name": "OnlyPeer",
      "type": "error"
    },
    {
      "anonymous": false,
      "inputs": [
        {
          "indexed": true,
          "internalType": "address",
          "name": "previousOwner",
          "type": "address"
        },
        {
          "indexed": true,
          "internalType": "address",
          "name": "newOwner",
          "type": "address"
        }
      ],
      "name": "OwnershipTransferred",
      "type": "event"
    },
    {
      "anonymous": false,
      "inputs": [
        {
          "indexed": false,
          "internalType": "uint32",
          "name": "eid",
          "type": "uint32"
        },
        {
          "indexed": false,
          "internalType": "bytes32",
          "name": "peer",
          "type": "bytes32"
        }
      ],
      "name": "PeerSet",
      "type": "event"
    },
    {
      "inputs": [
        {
          "components": [
            {
              "internalType": "uint32",
              "name": "srcEid",
              "type": "uint32"
            },
            {
              "internalType": "bytes32",
              "name": "sender",
              "type": "bytes32"
            },
            {
              "internalType": "uint64",
              "name": "nonce",
              "type": "uint64"
            }
          ],
          "internalType": "struct Origin",
          "name": "origin",
          "type": "tuple"
        }
      ],
      "name": "allowInitializePath",
      "outputs": [
        {
          "internalType": "bool",
          "name": "",
          "type": "bool"
        }
      ],
      "stateMutability": "view",
      "type": "function"
    },
    {
      "inputs": [],
      "name": "data",
      "outputs": [
        {
          "internalType": "string",
          "name": "",
          "type": "string"
        }
      ],
      "stateMutability": "view",
      "type": "function"
    },
    {
      "inputs": [],
      "name": "endpoint",
      "outputs": [
        {
          "internalType": "contract ILayerZeroEndpointV2",
          "name": "",
          "type": "address"
        }
      ],
      "stateMutability": "view",
      "type": "function"
    },
    {
      "inputs": [
        {
          "components": [
            {
              "internalType": "uint32",
              "name": "srcEid",
              "type": "uint32"
            },
            {
              "internalType": "bytes32",
              "name": "sender",
              "type": "bytes32"
            },
            {
              "internalType": "uint64",
              "name": "nonce",
              "type": "uint64"
            }
          ],
          "internalType": "struct Origin",
          "name": "",
          "type": "tuple"
        },
        {
          "internalType": "bytes",
          "name": "",
          "type": "bytes"
        },
        {
          "internalType": "address",
          "name": "_sender",
          "type": "address"
        }
      ],
      "name": "isComposeMsgSender",
      "outputs": [
        {
          "internalType": "bool",
          "name": "",
          "type": "bool"
        }
      ],
      "stateMutability": "view",
      "type": "function"
    },
    {
      "inputs": [
        {
          "components": [
            {
              "internalType": "uint32",
              "name": "srcEid",
              "type": "uint32"
            },
            {
              "internalType": "bytes32",
              "name": "sender",
              "type": "bytes32"
            },
            {
              "internalType": "uint64",
              "name": "nonce",
              "type": "uint64"
            }
          ],
          "internalType": "struct Origin",
          "name": "_origin",
          "type": "tuple"
        },
        {
          "internalType": "bytes32",
          "name": "_guid",
          "type": "bytes32"
        },
        {
          "internalType": "bytes",
          "name": "_message",
          "type": "bytes"
        },
        {
          "internalType": "address",
          "name": "_executor",
          "type": "address"
        },
        {
          "internalType": "bytes",
          "name": "_extraData",
          "type": "bytes"
        }
      ],
      "name": "lzReceive",
      "outputs": [],
      "stateMutability": "payable",
      "type": "function"
    },
    {
      "inputs": [
        {
          "internalType": "uint32",
          "name": "",
          "type": "uint32"
        },
        {
          "internalType": "bytes32",
          "name": "",
          "type": "bytes32"
        }
      ],
      "name": "nextNonce",
      "outputs": [
        {
          "internalType": "uint64",
          "name": "nonce",
          "type": "uint64"
        }
      ],
      "stateMutability": "view",
      "type": "function"
    },
    {
      "inputs": [],
      "name": "oAppVersion",
      "outputs": [
        {
          "internalType": "uint64",
          "name": "senderVersion",
          "type": "uint64"
        },
        {
          "internalType": "uint64",
          "name": "receiverVersion",
          "type": "uint64"
        }
      ],
      "stateMutability": "pure",
      "type": "function"
    },
    {
      "inputs": [],
      "name": "owner",
      "outputs": [
        {
          "internalType": "address",
          "name": "",
          "type": "address"
        }
      ],
      "stateMutability": "view",
      "type": "function"
    },
    {
      "inputs": [
        {
          "internalType": "uint32",
          "name": "eid",
          "type": "uint32"
        }
      ],
      "name": "peers",
      "outputs": [
        {
          "internalType": "bytes32",
          "name": "peer",
          "type": "bytes32"
        }
      ],
      "stateMutability": "view",
      "type": "function"
    },
    {
      "inputs": [
        {
          "internalType": "uint32",
          "name": "_dstEid",
          "type": "uint32"
        },
        {
          "internalType": "string",
          "name": "_message",
          "type": "string"
        },
        {
          "internalType": "bytes",
          "name": "_options",
          "type": "bytes"
        },
        {
          "internalType": "bool",
          "name": "_payInLzToken",
          "type": "bool"
        }
      ],
      "name": "quote",
      "outputs": [
        {
          "components": [
            {
              "internalType": "uint256",
              "name": "nativeFee",
              "type": "uint256"
            },
            {
              "internalType": "uint256",
              "name": "lzTokenFee",
              "type": "uint256"
            }
          ],
          "internalType": "struct MessagingFee",
          "name": "fee",
          "type": "tuple"
        }
      ],
      "stateMutability": "view",
      "type": "function"
    },
    {
      "inputs": [],
      "name": "renounceOwnership",
      "outputs": [],
      "stateMutability": "nonpayable",
      "type": "function"
    },
    {
      "inputs": [
        {
          "internalType": "uint32",
          "name": "_dstEid",
          "type": "uint32"
        },
        {
          "internalType": "string",
          "name": "_message",
          "type": "string"
        },
        {
          "internalType": "bytes",
          "name": "_options",
          "type": "bytes"
        }
      ],
      "name": "send",
      "outputs": [
        {
          "components": [
            {
              "internalType": "bytes32",
              "name": "guid",
              "type": "bytes32"
            },
            {
              "internalType": "uint64",
              "name": "nonce",
              "type": "uint64"
            },
            {
              "components": [
                {
                  "internalType": "uint256",
                  "name": "nativeFee",
                  "type": "uint256"
                },
                {
                  "internalType": "uint256",
                  "name": "lzTokenFee",
                  "type": "uint256"
                }
              ],
              "internalType": "struct MessagingFee",
              "name": "fee",
              "type": "tuple"
            }
          ],
          "internalType": "struct MessagingReceipt",
          "name": "receipt",
          "type": "tuple"
        }
      ],
      "stateMutability": "payable",
      "type": "function"
    },
    {
      "inputs": [
        {
          "internalType": "address",
          "name": "_delegate",
          "type": "address"
        }
      ],
      "name": "setDelegate",
      "outputs": [],
      "stateMutability": "nonpayable",
      "type": "function"
    },
    {
      "inputs": [
        {
          "internalType": "uint32",
          "name": "_eid",
          "type": "uint32"
        },
        {
          "internalType": "bytes32",
          "name": "_peer",
          "type": "bytes32"
        }
      ],
      "name": "setPeer",
      "outputs": [],
      "stateMutability": "nonpayable",
      "type": "function"
    },
    {
      "inputs": [
        {
          "internalType": "address",
          "name": "newOwner",
          "type": "address"
        }
      ],
      "name": "transferOwnership",
      "outputs": [],
      "stateMutability": "nonpayable",
      "type": "function"
    }
  ],
  "transactionHash": "0x40f497b23c8fe3727375cca9175bdb49e38d85240f0220d2d512b9da9a07cd52",
  "args": [
    "0x6EDCE65403992e310A62460808c4b910D972f10f"
  ],
  "numDeployments": 6,
  "solcInputHash": "c1d13543fded6f9d88c2ff212c56e3e5",
  "bytecode": "0x60e0604052601560a09081527f4e6f7468696e67207265636569766564207965742e000000000000000000000060c0526002906200003e90826200020f565b503480156200004c57600080fd5b50604051620018e9380380620018e98339810160408190526200006f91620002db565b803381816200007e8162000118565b6001600160a01b038083166080528116620000ac57604051632d618d8160e21b815260040160405180910390fd5b60805160405163ca5eb5e160e01b81526001600160a01b0383811660048301529091169063ca5eb5e190602401600060405180830381600087803b158015620000f457600080fd5b505af115801562000109573d6000803e3d6000fd5b5050505050505050506200030d565b600080546001600160a01b038381166001600160a01b0319831681178455604051919092169283917f8be0079c531659141344cd1fd0a4f28419497f9722a3daafe3b4186f6b6457e09190a35050565b634e487b7160e01b600052604160045260246000fd5b600181811c908216806200019357607f821691505b602082108103620001b457634e487b7160e01b600052602260045260246000fd5b50919050565b601f8211156200020a576000816000526020600020601f850160051c81016020861015620001e55750805b601f850160051c820191505b818110156200020657828155600101620001f1565b5050505b505050565b81516001600160401b038111156200022b576200022b62000168565b62000243816200023c84546200017e565b84620001ba565b602080601f8311600181146200027b5760008415620002625750858301515b600019600386901b1c1916600185901b17855562000206565b600085815260208120601f198616915b82811015620002ac578886015182559484019460019091019084016200028b565b5085821015620002cb5787850151600019600388901b60f8161c191681555b5050505050600190811b01905550565b600060208284031215620002ee57600080fd5b81516001600160a01b03811681146200030657600080fd5b9392505050565b608051611596620003536000396000818161015b0152818161033c015281816104f7015281816108630152818161095101528181610a480152610aff01526115966000f3fe6080604052600436106100e85760003560e01c806382413eac1161008a578063e0539e5811610059578063e0539e58146102ad578063f2fde38b146102cd578063f77e5dd3146102ed578063ff7bd03d1461031a57600080fd5b806382413eac146102045780638da5cb5b14610234578063bb0b6a5314610252578063ca5eb5e11461028d57600080fd5b80635e280f11116100c65780635e280f1114610149578063715018a61461019557806373d4a13a146101aa5780637d25a05e146101cc57600080fd5b806313137d65146100ed57806317442b70146101025780633400288b14610129575b600080fd5b6101006100fb366004610e22565b61033a565b005b34801561010e57600080fd5b50604080516001815260026020820152015b60405180910390f35b34801561013557600080fd5b50610100610144366004610eda565b6103fa565b34801561015557600080fd5b5061017d7f000000000000000000000000000000000000000000000000000000000000000081565b6040516001600160a01b039091168152602001610120565b3480156101a157600080fd5b50610100610410565b3480156101b657600080fd5b506101bf610424565b6040516101209190610f54565b3480156101d857600080fd5b506101ec6101e7366004610eda565b6104b2565b6040516001600160401b039091168152602001610120565b34801561021057600080fd5b5061022461021f366004610f6e565b6104bb565b6040519015158152602001610120565b34801561024057600080fd5b506000546001600160a01b031661017d565b34801561025e57600080fd5b5061027f61026d366004610fd4565b60016020526000908152604090205481565b604051908152602001610120565b34801561029957600080fd5b506101006102a8366004610fef565b6104d0565b6102c06102bb3660046110b7565b610556565b604051610120919061112d565b3480156102d957600080fd5b506101006102e8366004610fef565b6105df565b3480156102f957600080fd5b5061030d61030836600461117d565b610658565b604051610120919061120c565b34801561032657600080fd5b50610224610335366004611223565b61069c565b7f00000000000000000000000000000000000000000000000000000000000000006001600160a01b0316331461038a576040516391ac5e4f60e01b81523360048201526024015b60405180910390fd5b602087018035906103a49061039f908a610fd4565b6106d2565b146103e2576103b66020880188610fd4565b60405163309afaf360e21b815263ffffffff909116600482015260208801356024820152604401610381565b6103f18787878787878761070e565b50505050505050565b610402610731565b61040c828261078b565b5050565b610418610731565b61042260006107e0565b565b600280546104319061123f565b80601f016020809104026020016040519081016040528092919081815260200182805461045d9061123f565b80156104aa5780601f1061047f576101008083540402835291602001916104aa565b820191906000526020600020905b81548152906001019060200180831161048d57829003601f168201915b505050505081565b60005b92915050565b6001600160a01b03811630145b949350505050565b6104d8610731565b60405163ca5eb5e160e01b81526001600160a01b0382811660048301527f0000000000000000000000000000000000000000000000000000000000000000169063ca5eb5e190602401600060405180830381600087803b15801561053b57600080fd5b505af115801561054f573d6000803e3d6000fd5b5050505050565b61055e610d66565b6000846040516020016105719190610f54565b60408051601f198184030181526020601f870181900481028401810190925285835292506105d59188918491908890889081908401838280828437600092018290525060408051808201909152348152602081019190915292503391506108309050565b9695505050505050565b6105e7610731565b6001600160a01b03811661064c5760405162461bcd60e51b815260206004820152602660248201527f4f776e61626c653a206e6577206f776e657220697320746865207a65726f206160448201526564647265737360d01b6064820152608401610381565b610655816107e0565b50565b604080518082019091526000808252602082015260008460405160200161067f9190610f54565b60405160208183030381529060405290506105d58682868661093b565b60006020820180359060019083906106b49086610fd4565b63ffffffff1681526020810191909152604001600020541492915050565b63ffffffff8116600090815260016020526040812054806104b55760405163f6ff4fb760e01b815263ffffffff84166004820152602401610381565b61071a84860186611273565b60029061072790826112f7565b5050505050505050565b6000546001600160a01b031633146104225760405162461bcd60e51b815260206004820181905260248201527f4f776e61626c653a2063616c6c6572206973206e6f7420746865206f776e65726044820152606401610381565b63ffffffff8216600081815260016020908152604091829020849055815192835282018390527f238399d427b947898edb290f5ff0f9109849b1c3ba196a42e35f00c50a54b98b910160405180910390a15050565b600080546001600160a01b038381166001600160a01b0319831681178455604051919092169283917f8be0079c531659141344cd1fd0a4f28419497f9722a3daafe3b4186f6b6457e09190a35050565b610838610d66565b60006108478460000151610a1c565b602085015190915015610861576108618460200151610a44565b7f00000000000000000000000000000000000000000000000000000000000000006001600160a01b0316632637a450826040518060a001604052808b63ffffffff1681526020016108b18c6106d2565b81526020018a815260200189815260200160008960200151111515815250866040518463ffffffff1660e01b81526004016108ed9291906113b6565b60806040518083038185885af115801561090b573d6000803e3d6000fd5b50505050506040513d601f19601f82011682018060405250810190610930919061147d565b979650505050505050565b60408051808201909152600080825260208201527f00000000000000000000000000000000000000000000000000000000000000006001600160a01b031663ddc28c586040518060a001604052808863ffffffff16815260200161099e896106d2565b8152602001878152602001868152602001851515815250306040518363ffffffff1660e01b81526004016109d39291906113b6565b6040805180830381865afa1580156109ef573d6000803e3d6000fd5b505050506040513d601f19601f82011682018060405250810190610a1391906114ee565b95945050505050565b6000813414610a40576040516304fb820960e51b8152346004820152602401610381565b5090565b60007f00000000000000000000000000000000000000000000000000000000000000006001600160a01b031663e4fe1d946040518163ffffffff1660e01b8152600401602060405180830381865afa158015610aa4573d6000803e3d6000fd5b505050506040513d601f19601f82011682018060405250810190610ac8919061150a565b90506001600160a01b038116610af1576040516329b99a9560e11b815260040160405180910390fd5b6040805133602482018190527f00000000000000000000000000000000000000000000000000000000000000006001600160a01b03818116604485015260648085018890528551808603909101815260849094019094526020830180516001600160e01b03166323b872dd60e01b17905261040c938516928690610b76908590610b7c565b50505050565b6000610bd1826040518060400160405280602081526020017f5361666545524332303a206c6f772d6c6576656c2063616c6c206661696c6564815250856001600160a01b0316610c539092919063ffffffff16565b805190915015610c4e5780806020019051810190610bef9190611527565b610c4e5760405162461bcd60e51b815260206004820152602a60248201527f5361666545524332303a204552433230206f7065726174696f6e20646964206e6044820152691bdd081cdd58d8d9595960b21b6064820152608401610381565b505050565b60606104c8848460008585600080866001600160a01b03168587604051610c7a9190611544565b60006040518083038185875af1925050503d8060008114610cb7576040519150601f19603f3d011682016040523d82523d6000602084013e610cbc565b606091505b50915091506109308783838760608315610d37578251600003610d30576001600160a01b0385163b610d305760405162461bcd60e51b815260206004820152601d60248201527f416464726573733a2063616c6c20746f206e6f6e2d636f6e74726163740000006044820152606401610381565b50816104c8565b6104c88383815115610d4c5781518083602001fd5b8060405162461bcd60e51b81526004016103819190610f54565b60405180606001604052806000801916815260200160006001600160401b03168152602001610da8604051806040016040528060008152602001600081525090565b905290565b600060608284031215610dbf57600080fd5b50919050565b60008083601f840112610dd757600080fd5b5081356001600160401b03811115610dee57600080fd5b602083019150836020828501011115610e0657600080fd5b9250929050565b6001600160a01b038116811461065557600080fd5b600080600080600080600060e0888a031215610e3d57600080fd5b610e478989610dad565b96506060880135955060808801356001600160401b0380821115610e6a57600080fd5b610e768b838c01610dc5565b909750955060a08a01359150610e8b82610e0d565b90935060c08901359080821115610ea157600080fd5b50610eae8a828b01610dc5565b989b979a50959850939692959293505050565b803563ffffffff81168114610ed557600080fd5b919050565b60008060408385031215610eed57600080fd5b610ef683610ec1565b946020939093013593505050565b60005b83811015610f1f578181015183820152602001610f07565b50506000910152565b60008151808452610f40816020860160208601610f04565b601f01601f19169290920160200192915050565b602081526000610f676020830184610f28565b9392505050565b60008060008060a08587031215610f8457600080fd5b610f8e8686610dad565b935060608501356001600160401b03811115610fa957600080fd5b610fb587828801610dc5565b9094509250506080850135610fc981610e0d565b939692955090935050565b600060208284031215610fe657600080fd5b610f6782610ec1565b60006020828403121561100157600080fd5b8135610f6781610e0d565b634e487b7160e01b600052604160045260246000fd5b60006001600160401b038084111561103c5761103c61100c565b604051601f8501601f19908116603f011681019082821181831017156110645761106461100c565b8160405280935085815286868601111561107d57600080fd5b858560208301376000602087830101525050509392505050565b600082601f8301126110a857600080fd5b610f6783833560208501611022565b600080600080606085870312156110cd57600080fd5b6110d685610ec1565b935060208501356001600160401b03808211156110f257600080fd5b6110fe88838901611097565b9450604087013591508082111561111457600080fd5b5061112187828801610dc5565b95989497509550505050565b6000608082019050825182526001600160401b0360208401511660208301526040830151611168604084018280518252602090810151910152565b5092915050565b801515811461065557600080fd5b6000806000806080858703121561119357600080fd5b61119c85610ec1565b935060208501356001600160401b03808211156111b857600080fd5b6111c488838901611097565b945060408701359150808211156111da57600080fd5b508501601f810187136111ec57600080fd5b6111fb87823560208401611022565b9250506060850135610fc98161116f565b8151815260208083015190820152604081016104b5565b60006060828403121561123557600080fd5b610f678383610dad565b600181811c9082168061125357607f821691505b602082108103610dbf57634e487b7160e01b600052602260045260246000fd5b60006020828403121561128557600080fd5b81356001600160401b0381111561129b57600080fd5b6104c884828501611097565b601f821115610c4e576000816000526020600020601f850160051c810160208610156112d05750805b601f850160051c820191505b818110156112ef578281556001016112dc565b505050505050565b81516001600160401b038111156113105761131061100c565b6113248161131e845461123f565b846112a7565b602080601f83116001811461135957600084156113415750858301515b600019600386901b1c1916600185901b1785556112ef565b600085815260208120601f198616915b8281101561138857888601518255948401946001909101908401611369565b50858210156113a65787850151600019600388901b60f8161c191681555b5050505050600190811b01905550565b6040815263ffffffff8351166040820152602083015160608201526000604084015160a060808401526113ec60e0840182610f28565b90506060850151603f198483030160a08501526114098282610f28565b60809690960151151560c08501525050506001600160a01b039190911660209091015290565b60006040828403121561144157600080fd5b604051604081018181106001600160401b03821117156114635761146361100c565b604052825181526020928301519281019290925250919050565b60006080828403121561148f57600080fd5b604051606081016001600160401b0382821081831117156114b2576114b261100c565b81604052845183526020850151915080821682146114cf57600080fd5b5060208201526114e2846040850161142f565b60408201529392505050565b60006040828403121561150057600080fd5b610f67838361142f565b60006020828403121561151c57600080fd5b8151610f6781610e0d565b60006020828403121561153957600080fd5b8151610f678161116f565b60008251611556818460208701610f04565b919091019291505056fea26469706673582212209f4a492762fb7fe3125194cf10634a386dd3e0ba3553521f7933615140448efd64736f6c63430008160033",
  "devdoc": {
    "kind": "dev",
    "methods": {
      "allowInitializePath((uint32,bytes32,uint64))": {
        "details": "This indicates to the endpoint that the OApp has enabled msgs for this particular path to be received.This defaults to assuming if a peer has been set, its initialized. Can be overridden by the OApp if there is other logic to determine this.",
        "params": {
          "origin": "The origin information containing the source endpoint and sender address."
        },
        "returns": {
          "_0": "Whether the path has been initialized."
        }
      },
      "isComposeMsgSender((uint32,bytes32,uint64),bytes,address)": {
        "details": "_origin The origin information containing the source endpoint and sender address.  - srcEid: The source chain endpoint ID.  - sender: The sender address on the src chain.  - nonce: The nonce of the message._message The lzReceive payload.Applications can optionally choose to implement separate composeMsg senders that are NOT the bridging layer.The default sender IS the OAppReceiver implementer.",
        "params": {
          "_sender": "The sender address."
        },
        "returns": {
          "_0": "isSender Is a valid sender."
        }
      },
      "lzReceive((uint32,bytes32,uint64),bytes32,bytes,address,bytes)": {
        "details": "Entry point for receiving messages or packets from the endpoint.Entry point for receiving msg/packet from the LayerZero endpoint.",
        "params": {
          "_executor": "The address of the executor for the received message.",
          "_extraData": "Additional arbitrary data provided by the corresponding executor.",
          "_guid": "The unique identifier for the received LayerZero message.",
          "_message": "The payload of the received message.",
          "_origin": "The origin information containing the source endpoint and sender address.  - srcEid: The source chain endpoint ID.  - sender: The sender address on the src chain.  - nonce: The nonce of the message."
        }
      },
      "nextNonce(uint32,bytes32)": {
        "details": "_srcEid The source endpoint ID._sender The sender address.The path nonce starts from 1. If 0 is returned it means that there is NO nonce ordered enforcement.Is required by the off-chain executor to determine the OApp expects msg execution is ordered.This is also enforced by the OApp.By default this is NOT enabled. ie. nextNonce is hardcoded to return 0.",
        "returns": {
          "nonce": "The next nonce."
        }
      },
      "oAppVersion()": {
        "returns": {
          "receiverVersion": "The version of the OAppReceiver.sol implementation.",
          "senderVersion": "The version of the OAppSender.sol implementation."
        }
      },
      "owner()": {
        "details": "Returns the address of the current owner."
      },
      "quote(uint32,string,bytes,bool)": {
        "params": {
          "_dstEid": "Destination chain's endpoint ID.",
          "_message": "The message.",
          "_options": "Message execution options (e.g., for sending gas to destination).",
          "_payInLzToken": "Whether to return fee in ZRO token."
        },
        "returns": {
          "fee": "A `MessagingFee` struct containing the calculated gas fee in either the native token or ZRO token."
        }
      },
      "renounceOwnership()": {
        "details": "Leaves the contract without owner. It will not be possible to call `onlyOwner` functions anymore. Can only be called by the current owner. NOTE: Renouncing ownership will leave the contract without an owner, thereby removing any functionality that is only available to the owner."
      },
      "send(uint32,string,bytes)": {
        "details": "Encodes the message as bytes and sends it using the `_lzSend` internal function.",
        "params": {
          "_dstEid": "The endpoint ID of the destination chain.",
          "_message": "The message string to be sent.",
          "_options": "Additional options for message execution."
        },
        "returns": {
          "receipt": "A `MessagingReceipt` struct containing details of the message sent."
        }
      },
      "setDelegate(address)": {
        "details": "Only the owner/admin of the OApp can call this function.Provides the ability for a delegate to set configs, on behalf of the OApp, directly on the Endpoint contract.",
        "params": {
          "_delegate": "The address of the delegate to be set."
        }
      },
      "setPeer(uint32,bytes32)": {
        "details": "Only the owner/admin of the OApp can call this function.Indicates that the peer is trusted to send LayerZero messages to this OApp.Set this to bytes32(0) to remove the peer address.Peer is a bytes32 to accommodate non-evm chains.",
        "params": {
          "_eid": "The endpoint ID.",
          "_peer": "The address of the peer to be associated with the corresponding endpoint."
        }
      },
      "transferOwnership(address)": {
        "details": "Transfers ownership of the contract to a new account (`newOwner`). Can only be called by the current owner."
      }
    },
    "version": 1
  },
  "userdoc": {
    "kind": "user",
    "methods": {
      "allowInitializePath((uint32,bytes32,uint64))": {
        "notice": "Checks if the path initialization is allowed based on the provided origin."
      },
      "endpoint()": {
        "notice": "Retrieves the LayerZero endpoint associated with the OApp."
      },
      "isComposeMsgSender((uint32,bytes32,uint64),bytes,address)": {
        "notice": "Indicates whether an address is an approved composeMsg sender to the Endpoint."
      },
      "nextNonce(uint32,bytes32)": {
        "notice": "Retrieves the next nonce for a given source endpoint and sender address."
      },
      "oAppVersion()": {
        "notice": "Retrieves the OApp version information."
      },
      "peers(uint32)": {
        "notice": "Retrieves the peer (OApp) associated with a corresponding endpoint."
      },
      "quote(uint32,string,bytes,bool)": {
        "notice": "Quotes the gas needed to pay for the full omnichain transaction in native gas or ZRO token."
      },
      "send(uint32,string,bytes)": {
        "notice": "Sends a message from the source chain to a destination chain."
      },
      "setDelegate(address)": {
        "notice": "Sets the delegate address for the OApp."
      },
      "setPeer(uint32,bytes32)": {
        "notice": "Sets the peer address (OApp instance) for a corresponding endpoint."
      }
    },
    "version": 1
  },
  "storageLayout": {
    "storage": [
      {
        "astId": 1326,
        "contract": "contracts/lz.sol:MyOApp",
        "label": "_owner",
        "offset": 0,
        "slot": "0",
        "type": "t_address"
      },
      {
        "astId": 64,
        "contract": "contracts/lz.sol:MyOApp",
        "label": "peers",
        "offset": 0,
        "slot": "1",
        "type": "t_mapping(t_uint32,t_bytes32)"
      },
      {
        "astId": 2208,
        "contract": "contracts/lz.sol:MyOApp",
        "label": "data",
        "offset": 0,
        "slot": "2",
        "type": "t_string_storage"
      }
    ],
    "types": {
      "t_address": {
        "encoding": "inplace",
        "label": "address",
        "numberOfBytes": "20"
      },
      "t_bytes32": {
        "encoding": "inplace",
        "label": "bytes32",
        "numberOfBytes": "32"
      },
      "t_mapping(t_uint32,t_bytes32)": {
        "encoding": "mapping",
        "key": "t_uint32",
        "label": "mapping(uint32 => bytes32)",
        "numberOfBytes": "32",
        "value": "t_bytes32"
      },
      "t_string_storage": {
        "encoding": "bytes",
        "label": "string",
        "numberOfBytes": "32"
      },
      "t_uint32": {
        "encoding": "inplace",
        "label": "uint32",
        "numberOfBytes": "4"
      }
    }
  }
}