{
  "address": "0x515e3c7D5A06253c8f9974f4A01018AaD257e48f",
  "abi": [
    {
      "inputs": [
        {
          "internalType": "address",
          "name": "_endpoint",
          "type": "address"
        },
        {
          "internalType": "address",
          "name": "_delegate",
          "type": "address"
        }
      ],
      "stateMutability": "nonpayable",
      "type": "constructor"
    },
    {
      "inputs": [],
      "name": "InvalidDelegate",
      "type": "error"
    },
    {
      "inputs": [],
      "name": "InvalidEndpointCall",
      "type": "error"
    },
    {
      "inputs": [],
      "name": "LzTokenUnavailable",
      "type": "error"
    },
    {
      "inputs": [
        {
          "internalType": "uint32",
          "name": "eid",
          "type": "uint32"
        }
      ],
      "name": "NoPeer",
      "type": "error"
    },
    {
      "inputs": [
        {
          "internalType": "uint256",
          "name": "msgValue",
          "type": "uint256"
        }
      ],
      "name": "NotEnoughNative",
      "type": "error"
    },
    {
      "inputs": [
        {
          "internalType": "address",
          "name": "addr",
          "type": "address"
        }
      ],
      "name": "OnlyEndpoint",
      "type": "error"
    },
    {
      "inputs": [
        {
          "internalType": "uint32",
          "name": "eid",
          "type": "uint32"
        },
        {
          "internalType": "bytes32",
          "name": "sender",
          "type": "bytes32"
        }
      ],
      "name": "OnlyPeer",
      "type": "error"
    },
    {
      "anonymous": false,
      "inputs": [
        {
          "indexed": true,
          "internalType": "address",
          "name": "previousOwner",
          "type": "address"
        },
        {
          "indexed": true,
          "internalType": "address",
          "name": "newOwner",
          "type": "address"
        }
      ],
      "name": "OwnershipTransferred",
      "type": "event"
    },
    {
      "anonymous": false,
      "inputs": [
        {
          "indexed": false,
          "internalType": "uint32",
          "name": "eid",
          "type": "uint32"
        },
        {
          "indexed": false,
          "internalType": "bytes32",
          "name": "peer",
          "type": "bytes32"
        }
      ],
      "name": "PeerSet",
      "type": "event"
    },
    {
      "inputs": [
        {
          "components": [
            {
              "internalType": "uint32",
              "name": "srcEid",
              "type": "uint32"
            },
            {
              "internalType": "bytes32",
              "name": "sender",
              "type": "bytes32"
            },
            {
              "internalType": "uint64",
              "name": "nonce",
              "type": "uint64"
            }
          ],
          "internalType": "struct Origin",
          "name": "origin",
          "type": "tuple"
        }
      ],
      "name": "allowInitializePath",
      "outputs": [
        {
          "internalType": "bool",
          "name": "",
          "type": "bool"
        }
      ],
      "stateMutability": "view",
      "type": "function"
    },
    {
      "inputs": [],
      "name": "data",
      "outputs": [
        {
          "internalType": "string",
          "name": "",
          "type": "string"
        }
      ],
      "stateMutability": "view",
      "type": "function"
    },
    {
      "inputs": [],
      "name": "endpoint",
      "outputs": [
        {
          "internalType": "contract ILayerZeroEndpointV2",
          "name": "",
          "type": "address"
        }
      ],
      "stateMutability": "view",
      "type": "function"
    },
    {
      "inputs": [
        {
          "internalType": "uint256",
          "name": "",
          "type": "uint256"
        }
      ],
      "name": "feedIndexes",
      "outputs": [
        {
          "internalType": "uint256",
          "name": "",
          "type": "uint256"
        }
      ],
      "stateMutability": "view",
      "type": "function"
    },
    {
      "inputs": [],
      "name": "getFtsoV2CurrentFeedValues",
      "outputs": [
        {
          "internalType": "uint256[]",
          "name": "_feedValues",
          "type": "uint256[]"
        },
        {
          "internalType": "int8[]",
          "name": "_decimals",
          "type": "int8[]"
        },
        {
          "internalType": "uint64",
          "name": "_timestamp",
          "type": "uint64"
        }
      ],
      "stateMutability": "view",
      "type": "function"
    },
    {
      "inputs": [
        {
          "components": [
            {
              "internalType": "uint32",
              "name": "srcEid",
              "type": "uint32"
            },
            {
              "internalType": "bytes32",
              "name": "sender",
              "type": "bytes32"
            },
            {
              "internalType": "uint64",
              "name": "nonce",
              "type": "uint64"
            }
          ],
          "internalType": "struct Origin",
          "name": "",
          "type": "tuple"
        },
        {
          "internalType": "bytes",
          "name": "",
          "type": "bytes"
        },
        {
          "internalType": "address",
          "name": "_sender",
          "type": "address"
        }
      ],
      "name": "isComposeMsgSender",
      "outputs": [
        {
          "internalType": "bool",
          "name": "",
          "type": "bool"
        }
      ],
      "stateMutability": "view",
      "type": "function"
    },
    {
      "inputs": [
        {
          "components": [
            {
              "internalType": "uint32",
              "name": "srcEid",
              "type": "uint32"
            },
            {
              "internalType": "bytes32",
              "name": "sender",
              "type": "bytes32"
            },
            {
              "internalType": "uint64",
              "name": "nonce",
              "type": "uint64"
            }
          ],
          "internalType": "struct Origin",
          "name": "_origin",
          "type": "tuple"
        },
        {
          "internalType": "bytes32",
          "name": "_guid",
          "type": "bytes32"
        },
        {
          "internalType": "bytes",
          "name": "_message",
          "type": "bytes"
        },
        {
          "internalType": "address",
          "name": "_executor",
          "type": "address"
        },
        {
          "internalType": "bytes",
          "name": "_extraData",
          "type": "bytes"
        }
      ],
      "name": "lzReceive",
      "outputs": [],
      "stateMutability": "payable",
      "type": "function"
    },
    {
      "inputs": [
        {
          "internalType": "uint32",
          "name": "",
          "type": "uint32"
        },
        {
          "internalType": "bytes32",
          "name": "",
          "type": "bytes32"
        }
      ],
      "name": "nextNonce",
      "outputs": [
        {
          "internalType": "uint64",
          "name": "nonce",
          "type": "uint64"
        }
      ],
      "stateMutability": "view",
      "type": "function"
    },
    {
      "inputs": [],
      "name": "oAppVersion",
      "outputs": [
        {
          "internalType": "uint64",
          "name": "senderVersion",
          "type": "uint64"
        },
        {
          "internalType": "uint64",
          "name": "receiverVersion",
          "type": "uint64"
        }
      ],
      "stateMutability": "pure",
      "type": "function"
    },
    {
      "inputs": [],
      "name": "owner",
      "outputs": [
        {
          "internalType": "address",
          "name": "",
          "type": "address"
        }
      ],
      "stateMutability": "view",
      "type": "function"
    },
    {
      "inputs": [
        {
          "internalType": "uint32",
          "name": "eid",
          "type": "uint32"
        }
      ],
      "name": "peers",
      "outputs": [
        {
          "internalType": "bytes32",
          "name": "peer",
          "type": "bytes32"
        }
      ],
      "stateMutability": "view",
      "type": "function"
    },
    {
      "inputs": [
        {
          "internalType": "uint32",
          "name": "_dstEid",
          "type": "uint32"
        },
        {
          "internalType": "string",
          "name": "_message",
          "type": "string"
        },
        {
          "internalType": "bytes",
          "name": "_options",
          "type": "bytes"
        },
        {
          "internalType": "bool",
          "name": "_payInLzToken",
          "type": "bool"
        }
      ],
      "name": "quote",
      "outputs": [
        {
          "components": [
            {
              "internalType": "uint256",
              "name": "nativeFee",
              "type": "uint256"
            },
            {
              "internalType": "uint256",
              "name": "lzTokenFee",
              "type": "uint256"
            }
          ],
          "internalType": "struct MessagingFee",
          "name": "fee",
          "type": "tuple"
        }
      ],
      "stateMutability": "view",
      "type": "function"
    },
    {
      "inputs": [],
      "name": "renounceOwnership",
      "outputs": [],
      "stateMutability": "nonpayable",
      "type": "function"
    },
    {
      "inputs": [
        {
          "internalType": "uint32",
          "name": "_dstEid",
          "type": "uint32"
        },
        {
          "internalType": "string",
          "name": "_message",
          "type": "string"
        },
        {
          "internalType": "bytes",
          "name": "_options",
          "type": "bytes"
        }
      ],
      "name": "send",
      "outputs": [
        {
          "components": [
            {
              "internalType": "bytes32",
              "name": "guid",
              "type": "bytes32"
            },
            {
              "internalType": "uint64",
              "name": "nonce",
              "type": "uint64"
            },
            {
              "components": [
                {
                  "internalType": "uint256",
                  "name": "nativeFee",
                  "type": "uint256"
                },
                {
                  "internalType": "uint256",
                  "name": "lzTokenFee",
                  "type": "uint256"
                }
              ],
              "internalType": "struct MessagingFee",
              "name": "fee",
              "type": "tuple"
            }
          ],
          "internalType": "struct MessagingReceipt",
          "name": "receipt",
          "type": "tuple"
        }
      ],
      "stateMutability": "payable",
      "type": "function"
    },
    {
      "inputs": [
        {
          "internalType": "address",
          "name": "_delegate",
          "type": "address"
        }
      ],
      "name": "setDelegate",
      "outputs": [],
      "stateMutability": "nonpayable",
      "type": "function"
    },
    {
      "inputs": [
        {
          "internalType": "uint32",
          "name": "_eid",
          "type": "uint32"
        },
        {
          "internalType": "bytes32",
          "name": "_peer",
          "type": "bytes32"
        }
      ],
      "name": "setPeer",
      "outputs": [],
      "stateMutability": "nonpayable",
      "type": "function"
    },
    {
      "inputs": [
        {
          "internalType": "address",
          "name": "newOwner",
          "type": "address"
        }
      ],
      "name": "transferOwnership",
      "outputs": [],
      "stateMutability": "nonpayable",
      "type": "function"
    }
  ],
  "transactionHash": "0x4b01700e516f58f062983f8ae2bbff3d07f692391bc1fecc4cfa0b9f0138def0",
  "args": [
    "0x6EDCE65403992e310A62460808c4b910D972f10f",
    "0x2a1F5eB3e84e58e6F1e565306298B9dE1273f203"
  ],
  "numDeployments": 2,
  "solcInputHash": "9e52ad58fba57182ab31c44bde4a6ea1",
  "bytecode": "0x60a060409080825234620003585760009082816200183f80380380916200002782856200035d565b83398101031262000354576200003d8162000397565b906200004d602080920162000397565b8354336001600160a01b031980831682178755875190956001600160a01b0395949193869384929183167f8be0079c531659141344cd1fd0a4f28419497f9722a3daafe3b4186f6b6457e08b80a316608052169081156200034557508260805116803b156200034157858091602489518094819363ca5eb5e160e01b8352600497888401525af18015620003375762000308575b50855194606086016001600160401b03811187821017620002f3578752808652600283870152600987870152815495600396878455808810620002d6575b5082825283822090825b888110620002c057505050600554600181811c91168015620002b5575b84821014620002a257601f81116200027f575b50602a7f4e6f7468696e67207265636569766564207965742e000000000000000000000001600555828060646002549473ad67fe66660fb8dfe9d6b1b4240d8650e30f6019808a881617600255858c51978895869463413b07e560e11b8652850152600b60248501526a2330b9ba2ab83230ba32b960a91b604485015216175afa928315620002735781936200022f575b5050501690825416179055516114799081620003c6823960805181818161023601528181610718015281816107f901528181610a4c01528181610d110152610e4f0152f35b9091809350813d83116200026b575b6200024a81836200035d565b810103126200026857506200025f9062000397565b388080620001ea565b80fd5b503d6200023e565b508651903d90823e3d90fd5b6200029b9060058352601f858420910160051c810190620003ac565b3862000159565b506022602492634e487b7160e01b835252fd5b90607f169062000146565b815160ff16838201559085019060010162000129565b838352848320620002ec918101908901620003ac565b386200011f565b604183634e487b7160e01b6000525260246000fd5b9094906001600160401b038111620003245786529338620000e1565b634e487b7160e01b825260418652602482fd5b87513d88823e3d90fd5b8580fd5b632d618d8160e21b8152600490fd5b5080fd5b600080fd5b601f909101601f19168101906001600160401b038211908210176200038157604052565b634e487b7160e01b600052604160045260246000fd5b51906001600160a01b03821682036200035857565b818110620003b8575050565b60008155600101620003ac56fe608060408181526004918236101561001657600080fd5b600092833560e01c91826313137d6514610de35750816317442b7014610dc15781633400288b14610d405781635e280f1114610cfc578163715018a614610ca257816373d4a13a14610bb45781637d25a05e14610b8f57816382413eac14610b325781638da5cb5b14610b0a578163bb0b6a5314610ad6578163ca5eb5e114610a1d578163dae2f4bc146109d0578163e0539e5814610608578163f2fde38b1461053b578163f601bc8b146102d8578163f77e5dd31461011a575063ff7bd03d146100e057600080fd5b34610116576060366003190112610116578060209263ffffffff610102611210565b168152600184522054905190602435148152f35b5080fd5b9050346102d45760803660031901126102d45761013561108b565b6001600160401b0391906024358381116102d05761015690369084016111f2565b926044359081116102d057366023820112156102d05761017f90369060248186013591016111bb565b606435908115158092036102cc57918596939186936101c86101d66102329951986101a98a6110d8565b60008a5260006020809b015287519283918b8084015289830190611160565b03601f19810183528261113f565b60008887516101e4816110d8565b82815201526101f284611284565b63ffffffff87519561020387611109565b1685528885015285840152606083015260808201528251631bb8518b60e31b815295869283923091840161133c565b03817f00000000000000000000000000000000000000000000000000000000000000006001600160a01b03165afa9283156102c0578193610280575b50508083519280518452015190820152f35b90919250833d85116102b9575b610297818361113f565b81019184828403126102b65750906102ae91611314565b90388061026e565b80fd5b503d61028d565b508351903d90823e3d90fd5b8680fd5b8580fd5b8280fd5b8383346101165781600319360112610116576003548151631168574f60e21b8152602085820181905285546024830181905295855294909291849184916001600160a01b03169060448301907f8a35acfbc15ff81a39ae7d344fd709f28e8600b4aa8c65c6b64bfe7fe36bd19b90855b8a828210610521575050505082809103915afa938415610517578390849385966103f1575b509390825194606086016060875282518091528160808801930190845b8181106103dd5750505085820381870152808086519384815201950192805b8382106103c4576001600160401b0389168689015287870388f35b8451810b875295820195938201936001909101906103a9565b82518552938301939183019160010161038a565b93509450503d8084843e610405818461113f565b8201606083820312610513578251926001600160401b03938481116102d05781019382601f860112156102d05784519461043e86611259565b9561044b8651978861113f565b808752888088019160051b830101918583116104fc579089809201905b83821061050457505090508201519081116102d05781019180601f840112156102d057825161049681611259565b936104a38651958661113f565b818552888086019260051b82010192831161050057908886939201905b8282106104de575050506104d49101611270565b929092948661036d565b90809293505180890b81036104fc57815285929189019089016104c0565b8880fd5b8780fd5b81518152908201908201610468565b8380fd5b81513d85823e3d90fd5b835485528a97508996509093019260019283019201610348565b9050346102d45760203660031901126102d457610556611075565b9061055f6112bc565b6001600160a01b039182169283156105b6575050600054826bffffffffffffffffffffffff60a01b821617600055167f8be0079c531659141344cd1fd0a4f28419497f9722a3daafe3b4186f6b6457e0600080a380f35b906020608492519162461bcd60e51b8352820152602660248201527f4f776e61626c653a206e6577206f776e657220697320746865207a65726f206160448201526564647265737360d01b6064820152fd5b83915060603660031901126101165761061f61108b565b926001600160401b03926024358481116101165761064090369085016111f2565b926044358581116102d4576106589036908301611043565b90610661611223565b50845161067c816101c86020998a8084015289830190611160565b61069c86519261068b846110d8565b3484528884019487865236916111bb565b916106a5611223565b5051928334036109ba578051806107e3575b5091899391610714959363ffffffff6106d26106e09d611284565b91511515968a519d8e611109565b168c52898c0152878b015260608a015260809889938482015286518095819482936302637a4560e41b84523391840161133c565b03917f00000000000000000000000000000000000000000000000000000000000000006001600160a01b03165af19182156107d85790818493610776575b50508151948151865284820151168486015201519081519084015201516060820152f35b91509150853d87116107d1575b61078d818461113f565b82019086838303126102b65750906107c68392838051936107ad85611124565b805185526107bc888201611270565b8886015201611314565b828201528680610752565b503d610783565b8351903d90823e3d90fd5b875163393f876560e21b81526001600160a01b037f00000000000000000000000000000000000000000000000000000000000000008116918b818a81865afa9081156109b0578a91610976575b5016908115610966576108d6929189808d938d5195858701916323b872dd60e01b8352336024890152604488015260648701526064865261087086611109565b8d519561087c876110d8565b8587527f5361666545524332303a206c6f772d6c6576656c2063616c6c206661696c656486880152519082855af1903d1561095d578b3d6108c86108bf826111a0565b9251928361113f565b81528b81943d92013e6113aa565b8051806108e4575b506106b7565b818a91810103126102cc578801518015908115036102cc57610907578a806108de565b865162461bcd60e51b8152808601899052602a60248201527f5361666545524332303a204552433230206f7065726174696f6e20646964206e6044820152691bdd081cdd58d8d9595960b21b6064820152608490fd5b606092506113aa565b89516329b99a9560e11b81528890fd5b90508b81813d83116109a9575b61098d818361113f565b810103126109a5575181811681036109a5578e610830565b8980fd5b503d610983565b8b513d8c823e3d90fd5b86516304fb820960e51b81523481870152602490fd5b9050346102d45760203660031901126102d457803590805482101561051357602093527f8a35acfbc15ff81a39ae7d344fd709f28e8600b4aa8c65c6b64bfe7fe36bd19b01549051908152f35b919050346102d45760203660031901126102d457610a39611075565b91610a426112bc565b6001600160a01b037f0000000000000000000000000000000000000000000000000000000000000000811693859190853b156102d457602490838651978894859363ca5eb5e160e01b855216878401525af18015610acc57610aa2578380f35b6001600160401b038311610ab95750523880808380f35b634e487b7160e01b845260419052602483fd5b82513d86823e3d90fd5b505034610116576020366003190112610116578060209263ffffffff610afa61108b565b1681526001845220549051908152f35b505034610116578160031936011261011657905490516001600160a01b039091168152602090f35b9050346102d457366003190160a08112610513576060136102d457606435906001600160401b03821161051357610b6b91369101611043565b50506084356001600160a01b03811691908290036102d45760209250519030148152f35b50503461011657806003193601126101165790602091610bad61108b565b5051908152f35b8284346102b657806003193601126102b6578151918282600554610bd78161109e565b9081845260209560019187600182169182600014610c7b575050600114610c1f575b505050610c1b9291610c0c91038561113f565b51928284938452830190611160565b0390f35b9190869350600583527f036b6384b5eca791c62761152d0c79bb0604c104a5fb6f4eb0703f3154bb3db05b828410610c635750505082010181610c0c610c1b610bf9565b8054848a018601528895508794909301928101610c4a565b60ff19168782015293151560051b86019093019350849250610c0c9150610c1b9050610bf9565b83346102b657806003193601126102b657610cbb6112bc565b80546001600160a01b03198116825581906001600160a01b03167f8be0079c531659141344cd1fd0a4f28419497f9722a3daafe3b4186f6b6457e08280a380f35b505034610116578160031936011261011657517f00000000000000000000000000000000000000000000000000000000000000006001600160a01b03168152602090f35b5050346101165780600319360112610116577f238399d427b947898edb290f5ff0f9109849b1c3ba196a42e35f00c50a54b98b90610d7c61108b565b610dbb60243592610d8b6112bc565b63ffffffff831686526001602052838187205551928392836020909392919363ffffffff60408201951681520152565b0390a180f35b8284346102b657806003193601126102b6575080516001815260026020820152f35b849084366003190160e08112610513576060136102d4576001600160401b0390608435828111610ff357610e1a9036908701611043565b90939091906001600160a01b0360a435818116036102cc5760c43585811161050057610e499036908a01611043565b505033907f0000000000000000000000000000000000000000000000000000000000000000160361102f5750610e85610e80611210565b611284565b602435809103610ff75750508201602092602081830312610ff3578035908382116102d057610eb59291016111f2565b938451918211610ab95750600591610ecd835461109e565b601f8111610f93575b50602090601f8311600114610f135750839482939492610f08575b50508160011b916000199060031b1c191617905580f35b015190508480610ef1565b838552601f198316957f036b6384b5eca791c62761152d0c79bb0604c104a5fb6f4eb0703f3154bb3db0929186905b888210610f7b57505083600195969710610f62575b505050811b01905580f35b015160001960f88460031b161c19169055848080610f57565b80600185968294968601518155019501930190610f42565b8385527f036b6384b5eca791c62761152d0c79bb0604c104a5fb6f4eb0703f3154bb3db0601f8401851c81019160208510610fe9575b601f01851c01905b818110610fde5750610ed6565b858155600101610fd1565b9091508190610fc9565b8480fd5b61102b8791611004611210565b935163309afaf360e21b815263ffffffff9094169284019283526020830152829160400190565b0390fd5b6391ac5e4f60e01b81523387820152602490fd5b9181601f84011215611070578235916001600160401b038311611070576020838186019501011161107057565b600080fd5b600435906001600160a01b038216820361107057565b6004359063ffffffff8216820361107057565b90600182811c921680156110ce575b60208310146110b857565b634e487b7160e01b600052602260045260246000fd5b91607f16916110ad565b604081019081106001600160401b038211176110f357604052565b634e487b7160e01b600052604160045260246000fd5b60a081019081106001600160401b038211176110f357604052565b606081019081106001600160401b038211176110f357604052565b90601f801991011681019081106001600160401b038211176110f357604052565b919082519283825260005b84811061118c575050826000602080949584010152601f8019910116010190565b60208183018101518483018201520161116b565b6001600160401b0381116110f357601f01601f191660200190565b9291926111c7826111a0565b916111d5604051938461113f565b829481845281830111611070578281602093846000960137010152565b9080601f830112156110705781602061120d933591016111bb565b90565b60043563ffffffff811681036110705790565b6040519061123082611124565b816000815260006020820152604080519161124a836110d8565b60008352600060208401520152565b6001600160401b0381116110f35760051b60200190565b51906001600160401b038216820361107057565b63ffffffff168060005260016020526040600020549081156112a4575090565b6024906040519063f6ff4fb760e01b82526004820152fd5b6000546001600160a01b031633036112d057565b606460405162461bcd60e51b815260206004820152602060248201527f4f776e61626c653a2063616c6c6572206973206e6f7420746865206f776e65726044820152fd5b91908260409103126110705760405161132c816110d8565b6020808294805184520151910152565b906020909392936040835263ffffffff8151166040840152818101516060840152608061139061137a604084015160a08488015260e0870190611160565b6060840151868203603f190160a0880152611160565b910151151560c08401526001600160a01b03909416910152565b9192901561140c57508151156113be575090565b3b156113c75790565b60405162461bcd60e51b815260206004820152601d60248201527f416464726573733a2063616c6c20746f206e6f6e2d636f6e74726163740000006044820152606490fd5b82519091501561141f5750805190602001fd5b60405162461bcd60e51b81526020600482015290819061102b90602483019061116056fea264697066735822122039d6e319196c923acdc673c3c016366b5978be537027c7c36199cb91adcede3c64736f6c63430008160033",
  "devdoc": {
    "kind": "dev",
    "methods": {
      "allowInitializePath((uint32,bytes32,uint64))": {
        "details": "This indicates to the endpoint that the OApp has enabled msgs for this particular path to be received.This defaults to assuming if a peer has been set, its initialized. Can be overridden by the OApp if there is other logic to determine this.",
        "params": {
          "origin": "The origin information containing the source endpoint and sender address."
        },
        "returns": {
          "_0": "Whether the path has been initialized."
        }
      },
      "isComposeMsgSender((uint32,bytes32,uint64),bytes,address)": {
        "details": "_origin The origin information containing the source endpoint and sender address.  - srcEid: The source chain endpoint ID.  - sender: The sender address on the src chain.  - nonce: The nonce of the message._message The lzReceive payload.Applications can optionally choose to implement separate composeMsg senders that are NOT the bridging layer.The default sender IS the OAppReceiver implementer.",
        "params": {
          "_sender": "The sender address."
        },
        "returns": {
          "_0": "isSender Is a valid sender."
        }
      },
      "lzReceive((uint32,bytes32,uint64),bytes32,bytes,address,bytes)": {
        "details": "Entry point for receiving messages or packets from the endpoint.Entry point for receiving msg/packet from the LayerZero endpoint.",
        "params": {
          "_executor": "The address of the executor for the received message.",
          "_extraData": "Additional arbitrary data provided by the corresponding executor.",
          "_guid": "The unique identifier for the received LayerZero message.",
          "_message": "The payload of the received message.",
          "_origin": "The origin information containing the source endpoint and sender address.  - srcEid: The source chain endpoint ID.  - sender: The sender address on the src chain.  - nonce: The nonce of the message."
        }
      },
      "nextNonce(uint32,bytes32)": {
        "details": "_srcEid The source endpoint ID._sender The sender address.The path nonce starts from 1. If 0 is returned it means that there is NO nonce ordered enforcement.Is required by the off-chain executor to determine the OApp expects msg execution is ordered.This is also enforced by the OApp.By default this is NOT enabled. ie. nextNonce is hardcoded to return 0.",
        "returns": {
          "nonce": "The next nonce."
        }
      },
      "oAppVersion()": {
        "returns": {
          "receiverVersion": "The version of the OAppReceiver.sol implementation.",
          "senderVersion": "The version of the OAppSender.sol implementation."
        }
      },
      "owner()": {
        "details": "Returns the address of the current owner."
      },
      "quote(uint32,string,bytes,bool)": {
        "params": {
          "_dstEid": "Destination chain's endpoint ID.",
          "_message": "The message.",
          "_options": "Message execution options (e.g., for sending gas to destination).",
          "_payInLzToken": "Whether to return fee in ZRO token."
        },
        "returns": {
          "fee": "A `MessagingFee` struct containing the calculated gas fee in either the native token or ZRO token."
        }
      },
      "renounceOwnership()": {
        "details": "Leaves the contract without owner. It will not be possible to call `onlyOwner` functions anymore. Can only be called by the current owner. NOTE: Renouncing ownership will leave the contract without an owner, thereby removing any functionality that is only available to the owner."
      },
      "send(uint32,string,bytes)": {
        "details": "Encodes the message as bytes and sends it using the `_lzSend` internal function.",
        "params": {
          "_dstEid": "The endpoint ID of the destination chain.",
          "_message": "The message string to be sent.",
          "_options": "Additional options for message execution."
        },
        "returns": {
          "receipt": "A `MessagingReceipt` struct containing details of the message sent."
        }
      },
      "setDelegate(address)": {
        "details": "Only the owner/admin of the OApp can call this function.Provides the ability for a delegate to set configs, on behalf of the OApp, directly on the Endpoint contract.",
        "params": {
          "_delegate": "The address of the delegate to be set."
        }
      },
      "setPeer(uint32,bytes32)": {
        "details": "Only the owner/admin of the OApp can call this function.Indicates that the peer is trusted to send LayerZero messages to this OApp.Set this to bytes32(0) to remove the peer address.Peer is a bytes32 to accommodate non-evm chains.",
        "params": {
          "_eid": "The endpoint ID.",
          "_peer": "The address of the peer to be associated with the corresponding endpoint."
        }
      },
      "transferOwnership(address)": {
        "details": "Transfers ownership of the contract to a new account (`newOwner`). Can only be called by the current owner."
      }
    },
    "version": 1
  },
  "userdoc": {
    "kind": "user",
    "methods": {
      "allowInitializePath((uint32,bytes32,uint64))": {
        "notice": "Checks if the path initialization is allowed based on the provided origin."
      },
      "constructor": {
        "notice": "Constructor initializes the FTSOv2 contract. The contract registry is used to fetch the FTSOv2 contract address."
      },
      "endpoint()": {
        "notice": "Retrieves the LayerZero endpoint associated with the OApp."
      },
      "getFtsoV2CurrentFeedValues()": {
        "notice": "Get the current value of the feeds."
      },
      "isComposeMsgSender((uint32,bytes32,uint64),bytes,address)": {
        "notice": "Indicates whether an address is an approved composeMsg sender to the Endpoint."
      },
      "nextNonce(uint32,bytes32)": {
        "notice": "Retrieves the next nonce for a given source endpoint and sender address."
      },
      "oAppVersion()": {
        "notice": "Retrieves the OApp version information."
      },
      "peers(uint32)": {
        "notice": "Retrieves the peer (OApp) associated with a corresponding endpoint."
      },
      "quote(uint32,string,bytes,bool)": {
        "notice": "Quotes the gas needed to pay for the full omnichain transaction in native gas or ZRO token."
      },
      "send(uint32,string,bytes)": {
        "notice": "Sends a message from the source chain to a destination chain."
      },
      "setDelegate(address)": {
        "notice": "Sets the delegate address for the OApp."
      },
      "setPeer(uint32,bytes32)": {
        "notice": "Sets the peer address (OApp instance) for a corresponding endpoint."
      }
    },
    "notice": "THIS IS AN EXAMPLE CONTRACT. DO NOT USE THIS CODE IN PRODUCTION.",
    "version": 1
  },
  "storageLayout": {
    "storage": [
      {
        "astId": 1632,
        "contract": "contracts/FtsoV2FeedConsumerLz.sol:FtsoV2FeedConsumerLz",
        "label": "_owner",
        "offset": 0,
        "slot": "0",
        "type": "t_address"
      },
      {
        "astId": 370,
        "contract": "contracts/FtsoV2FeedConsumerLz.sol:FtsoV2FeedConsumerLz",
        "label": "peers",
        "offset": 0,
        "slot": "1",
        "type": "t_mapping(t_uint32,t_bytes32)"
      },
      {
        "astId": 4380,
        "contract": "contracts/FtsoV2FeedConsumerLz.sol:FtsoV2FeedConsumerLz",
        "label": "contractRegistry",
        "offset": 0,
        "slot": "2",
        "type": "t_contract(IFlareContractRegistry)305"
      },
      {
        "astId": 4383,
        "contract": "contracts/FtsoV2FeedConsumerLz.sol:FtsoV2FeedConsumerLz",
        "label": "ftsoV2",
        "offset": 0,
        "slot": "3",
        "type": "t_contract(IFastUpdater)156"
      },
      {
        "astId": 4390,
        "contract": "contracts/FtsoV2FeedConsumerLz.sol:FtsoV2FeedConsumerLz",
        "label": "feedIndexes",
        "offset": 0,
        "slot": "4",
        "type": "t_array(t_uint256)dyn_storage"
      },
      {
        "astId": 4393,
        "contract": "contracts/FtsoV2FeedConsumerLz.sol:FtsoV2FeedConsumerLz",
        "label": "data",
        "offset": 0,
        "slot": "5",
        "type": "t_string_storage"
      }
    ],
    "types": {
      "t_address": {
        "encoding": "inplace",
        "label": "address",
        "numberOfBytes": "20"
      },
      "t_array(t_uint256)dyn_storage": {
        "base": "t_uint256",
        "encoding": "dynamic_array",
        "label": "uint256[]",
        "numberOfBytes": "32"
      },
      "t_bytes32": {
        "encoding": "inplace",
        "label": "bytes32",
        "numberOfBytes": "32"
      },
      "t_contract(IFastUpdater)156": {
        "encoding": "inplace",
        "label": "contract IFastUpdater",
        "numberOfBytes": "20"
      },
      "t_contract(IFlareContractRegistry)305": {
        "encoding": "inplace",
        "label": "contract IFlareContractRegistry",
        "numberOfBytes": "20"
      },
      "t_mapping(t_uint32,t_bytes32)": {
        "encoding": "mapping",
        "key": "t_uint32",
        "label": "mapping(uint32 => bytes32)",
        "numberOfBytes": "32",
        "value": "t_bytes32"
      },
      "t_string_storage": {
        "encoding": "bytes",
        "label": "string",
        "numberOfBytes": "32"
      },
      "t_uint256": {
        "encoding": "inplace",
        "label": "uint256",
        "numberOfBytes": "32"
      },
      "t_uint32": {
        "encoding": "inplace",
        "label": "uint32",
        "numberOfBytes": "4"
      }
    }
  }
}