{
  "address": "0x04a14C5c473bde21bDd52C2f169d99597B298a5B",
  "abi": [
    {
      "inputs": [],
      "stateMutability": "nonpayable",
      "type": "constructor"
    },
    {
      "inputs": [
        {
          "internalType": "uint256",
          "name": "",
          "type": "uint256"
        }
      ],
      "name": "feedIndexes",
      "outputs": [
        {
          "internalType": "uint256",
          "name": "",
          "type": "uint256"
        }
      ],
      "stateMutability": "view",
      "type": "function"
    },
    {
      "inputs": [],
      "name": "getFtsoV2CurrentFeedValues",
      "outputs": [
        {
          "internalType": "uint256[]",
          "name": "_feedValues",
          "type": "uint256[]"
        },
        {
          "internalType": "int8[]",
          "name": "_decimals",
          "type": "int8[]"
        },
        {
          "internalType": "uint64",
          "name": "_timestamp",
          "type": "uint64"
        }
      ],
      "stateMutability": "view",
      "type": "function"
    }
  ],
  "transactionHash": "0x51fb737d61dea866b9daf210eaf87432ce1afa36414cd9749aee05471a1af8d2",
  "args": [],
  "numDeployments": 1,
  "solcInputHash": "3838f363d96520a75828828b5b8e13d7",
  "bytecode": "0x60e060405260006080908152600260a0819052600960c0526100229160036100f7565b5034801561002f57600080fd5b50600080546001600160a01b03191673ad67fe66660fb8dfe9d6b1b4240d8650e30f601990811790915560405163413b07e560e11b815260206004820152600b60248201526a2330b9ba2ab83230ba32b960a91b60448201526382760fca90606401602060405180830381865afa1580156100ae573d6000803e3d6000fd5b505050506040513d601f19601f820116820180604052508101906100d2919061015c565b600180546001600160a01b0319166001600160a01b039290921691909117905561018c565b828054828255906000526020600020908101928215610137579160200282015b82811115610137578251829060ff16905591602001919060010190610117565b50610143929150610147565b5090565b5b808211156101435760008155600101610148565b60006020828403121561016e57600080fd5b81516001600160a01b038116811461018557600080fd5b9392505050565b6104278061019b6000396000f3fe608060405234801561001057600080fd5b50600436106100365760003560e01c8063dae2f4bc1461003b578063f601bc8b14610061575b600080fd5b61004e61004936600461012c565b610078565b6040519081526020015b60405180910390f35b610069610099565b60405161005893929190610145565b6002818154811061008857600080fd5b600091825260209091200154905081565b600154604051631168574f60e21b815260609182916000918291829182916001600160a01b03909116906345a15d3c906100d8906002906004016101db565b600060405180830381865afa1580156100f5573d6000803e3d6000fd5b505050506040513d6000823e601f3d908101601f1916820160405261011d9190810190610325565b91989097509095509350505050565b60006020828403121561013e57600080fd5b5035919050565b60608082528451908201819052600090602090608084019082880184805b8381101561017f57825185529385019391850191600101610163565b5086840385880152885180855289860194860193509150805b828110156101b6578451820b84529385019392850192600101610198565b50505067ffffffffffffffff8616604086015292506101d3915050565b949350505050565b6020808252825482820181905260008481528281209092916040850190845b81811015610216578354835260019384019392850192016101fa565b50909695505050505050565b634e487b7160e01b600052604160045260246000fd5b604051601f8201601f1916810167ffffffffffffffff8111828210171561026157610261610222565b604052919050565b600067ffffffffffffffff82111561028357610283610222565b5060051b60200190565b600082601f83011261029e57600080fd5b815160206102b36102ae83610269565b610238565b82815260059290921b840181019181810190868411156102d257600080fd5b8286015b848110156102fd578051600081810b82146102ef578081fd5b5083529183019183016102d6565b509695505050505050565b805167ffffffffffffffff8116811461032057600080fd5b919050565b60008060006060848603121561033a57600080fd5b835167ffffffffffffffff8082111561035257600080fd5b818601915086601f83011261036657600080fd5b815160206103766102ae83610269565b82815260059290921b8401810191818101908a84111561039557600080fd5b948201945b838610156103b35785518252948201949082019061039a565b918901519197509093505050808211156103cc57600080fd5b506103d98682870161028d565b9250506103e860408501610308565b9050925092509256fea2646970667358221220df5c9a348286e17f409848aa42106c66e0e27d13c5eb37347e5188a1a0b9697a64736f6c63430008110033",
  "devdoc": {
    "kind": "dev",
    "methods": {},
    "version": 1
  },
  "userdoc": {
    "kind": "user",
    "methods": {
      "constructor": {
        "notice": "Constructor initializes the FTSOv2 contract. The contract registry is used to fetch the FTSOv2 contract address."
      },
      "getFtsoV2CurrentFeedValues()": {
        "notice": "Get the current value of the feeds."
      }
    },
    "notice": "THIS IS AN EXAMPLE CONTRACT. DO NOT USE THIS CODE IN PRODUCTION.",
    "version": 1
  },
  "storageLayout": {
    "storage": [
      {
        "astId": 228,
        "contract": "contracts/FtsoV2FeedConsumer.sol:FtsoV2FeedConsumer",
        "label": "contractRegistry",
        "offset": 0,
        "slot": "0",
        "type": "t_contract(IFlareContractRegistry)218"
      },
      {
        "astId": 231,
        "contract": "contracts/FtsoV2FeedConsumer.sol:FtsoV2FeedConsumer",
        "label": "ftsoV2",
        "offset": 0,
        "slot": "1",
        "type": "t_contract(IFastUpdater)154"
      },
      {
        "astId": 238,
        "contract": "contracts/FtsoV2FeedConsumer.sol:FtsoV2FeedConsumer",
        "label": "feedIndexes",
        "offset": 0,
        "slot": "2",
        "type": "t_array(t_uint256)dyn_storage"
      }
    ],
    "types": {
      "t_array(t_uint256)dyn_storage": {
        "base": "t_uint256",
        "encoding": "dynamic_array",
        "label": "uint256[]",
        "numberOfBytes": "32"
      },
      "t_contract(IFastUpdater)154": {
        "encoding": "inplace",
        "label": "contract IFastUpdater",
        "numberOfBytes": "20"
      },
      "t_contract(IFlareContractRegistry)218": {
        "encoding": "inplace",
        "label": "contract IFlareContractRegistry",
        "numberOfBytes": "20"
      },
      "t_uint256": {
        "encoding": "inplace",
        "label": "uint256",
        "numberOfBytes": "32"
      }
    }
  }
}