{
  "address": "0x45ed7F721549619b81F50d9Ec489183Ad59c273c",
  "abi": [
    {
      "inputs": [],
      "stateMutability": "nonpayable",
      "type": "constructor"
    },
    {
      "inputs": [
        {
          "internalType": "uint256",
          "name": "",
          "type": "uint256"
        }
      ],
      "name": "feedIndexes",
      "outputs": [
        {
          "internalType": "uint256",
          "name": "",
          "type": "uint256"
        }
      ],
      "stateMutability": "view",
      "type": "function"
    },
    {
      "inputs": [],
      "name": "getFtsoV2CurrentFeedValues",
      "outputs": [
        {
          "internalType": "uint256[]",
          "name": "_feedValues",
          "type": "uint256[]"
        },
        {
          "internalType": "int8[]",
          "name": "_decimals",
          "type": "int8[]"
        },
        {
          "internalType": "uint64",
          "name": "_timestamp",
          "type": "uint64"
        }
      ],
      "stateMutability": "view",
      "type": "function"
    },
    {
      "inputs": [
        {
          "internalType": "string",
          "name": "_assetName",
          "type": "string"
        }
      ],
      "name": "getFtsoV2CurrentFeedValuesByName",
      "outputs": [
        {
          "internalType": "uint256[]",
          "name": "_feedValues",
          "type": "uint256[]"
        },
        {
          "internalType": "int8[]",
          "name": "_decimals",
          "type": "int8[]"
        },
        {
          "internalType": "uint64",
          "name": "_timestamp",
          "type": "uint64"
        }
      ],
      "stateMutability": "view",
      "type": "function"
    },
    {
      "inputs": [
        {
          "internalType": "string[]",
          "name": "_assetName",
          "type": "string[]"
        }
      ],
      "name": "getFtsoV2CurrentFeedValuesByNames",
      "outputs": [
        {
          "internalType": "uint256[]",
          "name": "_feedValues",
          "type": "uint256[]"
        },
        {
          "internalType": "int8[]",
          "name": "_decimals",
          "type": "int8[]"
        },
        {
          "internalType": "uint64",
          "name": "_timestamp",
          "type": "uint64"
        }
      ],
      "stateMutability": "view",
      "type": "function"
    }
  ],
  "transactionHash": "0x748883f42d9c958730200a579456819eb7b716caa3b041c43e26f0c0b880240c",
  "args": [],
  "numDeployments": 4,
  "solcInputHash": "3e985deb25681eb51b5ee2ff47055d9e",
  "bytecode": "0x6080346200020e5760608101906001600160401b03821181831017620001f85760409182526000908181526020906002828201526009848201526003908154828055808310620001d0575b50818452828420845b838110620001ba575050505073ad67fe66660fb8dfe9d6b1b4240d8650e30f60199160018060a01b031992808483541617825584519263413b07e560e11b808552816004860152600b60248601526a2330b9ba2ab83230ba32b960a91b60448601528185606481865afa948515620001b05784956200018a575b50819060018060a01b0380961687600154161760015560648851809581938252846004830152601860248301527f4661737455706461746573436f6e66696775726174696f6e000000000000000060448301525afa9283156200017f57926200014b575b5050169060025416176002555161097c9081620002598239f35b6200016f9250803d1062000177575b62000166818362000213565b81019062000237565b388062000131565b503d6200015a565b8651903d90823e3d90fd5b82919550620001a890823d8411620001775762000166818362000213565b9490620000cd565b87513d86823e3d90fd5b825160ff16828201559184019160010162000053565b8285528284862091820191015b818110620001ec57506200004a565b858155600101620001dd565b634e487b7160e01b600052604160045260246000fd5b600080fd5b601f909101601f19168101906001600160401b03821190821017620001f857604052565b908160209103126200020e57516001600160a01b03811681036200020e579056fe60406080815260048036101561001457600080fd5b600091823560e01c806307dc8a36146103955780633eac152b1461019e578063dae2f4bc146101505763f601bc8b1461004c57600080fd5b3461014c578260031936011261014c57600180548251631168574f60e21b8152602094810185905260038054602483018190529087529094869386936001600160a01b03169260448501927fc2575a0e9e593c00f959f8c92f12db2869c3395a3b0502d05e2516446f71f85b92919087905b82821061013157505050505082809103915afa9081156101285783928480936100f7575b5050906100f3915193849384610682565b0390f35b909193506100f3945061011c92503d8091833e61011481836105b8565b8101906107cf565b939192909391386100e2565b513d84823e3d90fd5b845486528b98508a97509485019493830193908301906100be565b8280fd5b50903461014c57602036600319011261014c573560035481101561014c576003602093527fc2575a0e9e593c00f959f8c92f12db2869c3395a3b0502d05e2516446f71f85b01549051908152f35b50903461014c576020908160031936011261039157803567ffffffffffffffff811161038d576101d190369083016105f2565b9183516101dd81610586565b60018082526102036101fe84840196853689376101f8610749565b9061078c565b6108d3565b9482511561037a5793869388968794966affffffffffffffffffffff19809216905261022f87516106ed565b93858160018060a01b03938460025416915b6102c2575b5050505061027496506001541691855196879485938493631168574f60e21b8552840152602483019061064e565b03915afa908115610128578392848093610299575050906100f3915193849384610682565b909193506100f394506102b692503d8091833e61011481836105b8565b939192909391856100e2565b919395978a91939597999a5185101561036d5750816102e1858361071f565b518b51630a9cabe760e01b8152911689820152938785602481875afa80156103635786958d9161032c575b5090859161031a828d61071f565b5201918b98969493919a999795610241565b80929650898092503d831161035c575b61034681836105b8565b8101031261035857518594908561030c565b8b80fd5b503d61033c565b8b513d8e823e3d90fd5b9795938a99979550610246565b634e487b7160e01b885260328552602488fd5b8480fd5b8380fd5b508234610583576020918260031936011261057f5783359367ffffffffffffffff90818611610391573660238701121561039157602491818701356103d9816105da565b976103e68651998a6105b8565b8189526024888a019260051b8201019236841161057b5760248201925b84841061055157505050505061041986516106ed565b93805b875181101561046257806104416101fe6104386001948c61071f565b516101f8610749565b61044b828961071f565b906affffffffffffffffffffff191690520161041c565b509184928661047185516106ed565b6002546001600160a01b03969195908716949091845b8151811015610522576affffffffffffffffffffff196104a7828461071f565b518b51630a9cabe760e01b815291168582015290858285818b5afa80156105185787906104e4575b600192506104dd828b61071f565b5201610487565b50908581813d8311610511575b6104fb81836105b8565b8101031261050d5790600191516104cf565b8680fd5b503d6104f1565b8b513d89823e3d90fd5b856102748b828b888a8f6001541691855196879485938493631168574f60e21b8552840152602483019061064e565b8335828111610577578a9161056c83928a36918801016105f2565b815201930192610403565b8980fd5b8780fd5b5080fd5b80fd5b6040810190811067ffffffffffffffff8211176105a257604052565b634e487b7160e01b600052604160045260246000fd5b90601f8019910116810190811067ffffffffffffffff8211176105a257604052565b67ffffffffffffffff81116105a25760051b60200190565b81601f820112156106495780359067ffffffffffffffff82116105a25760405192610627601f8401601f1916602001856105b8565b8284526020838301011161064957816000926020809301838601378301015290565b600080fd5b90815180825260208080930193019160005b82811061066e575050505090565b835185529381019392810192600101610660565b91906106999094939460608452606084019061064e565b6020908381036020850152602080845192838152019301916000805b8382106106d457505050505067ffffffffffffffff6040919416910152565b8451810b865294820194938201936001909101906106b5565b906106f7826105da565b61070460405191826105b8565b8281528092610715601f19916105da565b0190602036910137565b80518210156107335760209160051b010190565b634e487b7160e01b600052603260045260246000fd5b6040519061075682610586565b60048252630bd554d160e21b6020830152565b60005b83811061077c5750506000910152565b818101518382015260200161076c565b60206107cd9193929360405194816107ad8793518092868087019101610769565b82016107c182518093868085019101610769565b010380855201836105b8565b565b909160608284031261064957815167ffffffffffffffff908181116106495783019380601f860112156106495784519460209561080b816105da565b9161081960405193846105b8565b818352878084019260051b820101918483116106495788809201905b8382106108c4575050505094808501518381116106495785019180601f84011215610649578251610865816105da565b9361087360405195866105b8565b818552838086019260051b820101928311610649578301905b8282106108a9575050505060409093015190811681036106495790565b8151600081810b82036105835750815290830190830161088c565b81518152908201908201610835565b60405161090b6021826020810194600160f81b86526108fb8151809260208686019101610769565b81010360018101845201826105b8565b5190516affffffffffffffffffffff1991828216919060158110610931575b5050905090565b8391925060150360031b1b161680388061092a56fea26469706673582212209b427cab4d3af3d6bb41c89090571b308d67d6f270c74c3a93373e2bac72f0d664736f6c63430008160033",
  "devdoc": {
    "kind": "dev",
    "methods": {},
    "version": 1
  },
  "userdoc": {
    "kind": "user",
    "methods": {
      "constructor": {
        "notice": "Constructor initializes the FTSOv2 contract. The contract registry is used to fetch the FTSOv2 contract address."
      },
      "getFtsoV2CurrentFeedValues()": {
        "notice": "Get the current value of the feeds."
      }
    },
    "version": 1
  },
  "storageLayout": {
    "storage": [
      {
        "astId": 463,
        "contract": "contracts/FtsoV2FeedConsumer.sol:FtsoV2FeedConsumer",
        "label": "contractRegistry",
        "offset": 0,
        "slot": "0",
        "type": "t_contract(IFlareContractRegistry)305"
      },
      {
        "astId": 466,
        "contract": "contracts/FtsoV2FeedConsumer.sol:FtsoV2FeedConsumer",
        "label": "ftsoV2",
        "offset": 0,
        "slot": "1",
        "type": "t_contract(IFastUpdater)156"
      },
      {
        "astId": 469,
        "contract": "contracts/FtsoV2FeedConsumer.sol:FtsoV2FeedConsumer",
        "label": "fastUpdatesConfiguration",
        "offset": 0,
        "slot": "2",
        "type": "t_contract(IFastUpdatesConfiguration)241"
      },
      {
        "astId": 476,
        "contract": "contracts/FtsoV2FeedConsumer.sol:FtsoV2FeedConsumer",
        "label": "feedIndexes",
        "offset": 0,
        "slot": "3",
        "type": "t_array(t_uint256)dyn_storage"
      }
    ],
    "types": {
      "t_array(t_uint256)dyn_storage": {
        "base": "t_uint256",
        "encoding": "dynamic_array",
        "label": "uint256[]",
        "numberOfBytes": "32"
      },
      "t_contract(IFastUpdater)156": {
        "encoding": "inplace",
        "label": "contract IFastUpdater",
        "numberOfBytes": "20"
      },
      "t_contract(IFastUpdatesConfiguration)241": {
        "encoding": "inplace",
        "label": "contract IFastUpdatesConfiguration",
        "numberOfBytes": "20"
      },
      "t_contract(IFlareContractRegistry)305": {
        "encoding": "inplace",
        "label": "contract IFlareContractRegistry",
        "numberOfBytes": "20"
      },
      "t_uint256": {
        "encoding": "inplace",
        "label": "uint256",
        "numberOfBytes": "32"
      }
    }
  }
}