{
  "address": "0x693EA8eacf71D19567A7Fe161b67697887ABcB4E",
  "abi": [
    {
      "inputs": [],
      "stateMutability": "nonpayable",
      "type": "constructor"
    },
    {
      "inputs": [],
      "name": "colleectBribes",
      "outputs": [
        {
          "internalType": "bool",
          "name": "",
          "type": "bool"
        }
      ],
      "stateMutability": "nonpayable",
      "type": "function"
    },
    {
      "inputs": [],
      "name": "counter",
      "outputs": [
        {
          "internalType": "uint256",
          "name": "",
          "type": "uint256"
        }
      ],
      "stateMutability": "view",
      "type": "function"
    },
    {
      "inputs": [],
      "name": "indexSize",
      "outputs": [
        {
          "internalType": "uint256",
          "name": "",
          "type": "uint256"
        }
      ],
      "stateMutability": "view",
      "type": "function"
    },
    {
      "inputs": [
        {
          "internalType": "uint256[]",
          "name": "indexOrders",
          "type": "uint256[]"
        },
        {
          "internalType": "string",
          "name": "tag",
          "type": "string"
        }
      ],
      "name": "persistIndex",
      "outputs": [
        {
          "internalType": "bool",
          "name": "",
          "type": "bool"
        }
      ],
      "stateMutability": "nonpayable",
      "type": "function"
    },
    {
      "inputs": [],
      "name": "sendMainChain",
      "outputs": [
        {
          "internalType": "bool",
          "name": "",
          "type": "bool"
        }
      ],
      "stateMutability": "nonpayable",
      "type": "function"
    },
    {
      "inputs": [
        {
          "components": [
            {
              "internalType": "string",
              "name": "_name",
              "type": "string"
            },
            {
              "internalType": "address",
              "name": "_address",
              "type": "address"
            },
            {
              "internalType": "uint32",
              "name": "_chainId",
              "type": "uint32"
            },
            {
              "internalType": "uint32",
              "name": "_id",
              "type": "uint32"
            }
          ],
          "internalType": "struct TokenInfo[]",
          "name": "_tokenInfo",
          "type": "tuple[]"
        },
        {
          "internalType": "address",
          "name": "_endpoint",
          "type": "address"
        },
        {
          "internalType": "address[]",
          "name": "_dataProviders",
          "type": "address[]"
        },
        {
          "components": [
            {
              "internalType": "uint256",
              "name": "_timeWindow",
              "type": "uint256"
            },
            {
              "internalType": "uint256",
              "name": "_sampleSize",
              "type": "uint256"
            },
            {
              "internalType": "uint256",
              "name": "_bribeUnit",
              "type": "uint256"
            }
          ],
          "internalType": "struct AggregatorParams",
          "name": "_aggregatorParams",
          "type": "tuple"
        },
        {
          "internalType": "uint256",
          "name": "indexSize",
          "type": "uint256"
        }
      ],
      "name": "updateTokenParams",
      "outputs": [
        {
          "internalType": "bool",
          "name": "",
          "type": "bool"
        }
      ],
      "stateMutability": "nonpayable",
      "type": "function"
    },
    {
      "inputs": [],
      "name": "updateTokenPars",
      "outputs": [
        {
          "internalType": "bool",
          "name": "",
          "type": "bool"
        }
      ],
      "stateMutability": "nonpayable",
      "type": "function"
    }
  ],
  "transactionHash": "0xc0d101b2e12733e6281be16eeb7fb68015558eb37999c705066eae42df4ac549",
  "args": [],
  "numDeployments": 1,
  "solcInputHash": "c441c32155c833bb46e87804631d189c",
  "bytecode": "0x6080806040523461001b5760006001556104a090816100218239f35b600080fdfe6040608081526004908136101561001557600080fd5b600091823560e01c806337c6b6aa1461034a57806345f87c8f1461026957806346e3f0d41461032d57806361bc221a1461030e57806375ffdf5d1461026e578063879b4fdc146102695763a74d154c1461006e57600080fd5b346102655760e03660031901126102655767ffffffffffffffff813581811161026157366023820112156102615780830135946024916100b56100b0886103b5565b610379565b968088528360208099019160051b830101913683116101b157848101915b8383106101b95750505082356001600160a01b038116039050610197576044358381116101b557366023820112156101b5578085013583886101176100b0846103b5565b838152019160051b830101913683116101b1579084899201905b83821061019a575050505060606063193601126101975784519360608501938411858510176101875750505082526064358152608435838201528160a43591015261017d600154610445565b6001555160018152f35b634e487b7160e01b825260419052fd5b80fd5b8280916101a684610420565b815201910190610131565b8380fd5b5080fd5b823587811161025d578201608090816023198236030112610259578a519182018281108a821117610247578b5287810135898111610243579161023360848e95938e61020b88978e36918501016103cd565b855261021960448301610420565b8786015261022960648301610434565b9085015201610434565b60608201528152019201916100d3565b8780fd5b634e487b7160e01b885260418b528888fd5b8680fd5b8580fd5b8480fd5b8280fd5b61034a565b50913461019757816003193601126101975767ffffffffffffffff9083358281116101b557366023820112156101b55780850135906102af6100b0836103b5565b91808352602460208094019160051b8301019136831161026157602401905b8282106102ff575050505060243591821161019757506020926102f3913691016103cd565b5061017d600154610445565b813581529083019083016102ce565b5050346101b557816003193601126101b5576020906001549051908152f35b5050346101b557816003193601126101b557602091549051908152f35b3461037457600036600319011261037457610366600154610445565b600155602060405160018152f35b600080fd5b6040519190601f01601f1916820167ffffffffffffffff81118382101761039f57604052565b634e487b7160e01b600052604160045260246000fd5b67ffffffffffffffff811161039f5760051b60200190565b81601f820112156103745780359067ffffffffffffffff821161039f576103fd601f8301601f1916602001610379565b928284526020838301011161037457816000926020809301838601378301015290565b35906001600160a01b038216820361037457565b359063ffffffff8216820361037457565b60001981146104545760010190565b634e487b7160e01b600052601160045260246000fdfea2646970667358221220f2d04faad3c867022ef0a4340fdad185a2090be4db503a1bd2c03261a961126364736f6c63430008160033",
  "devdoc": {
    "kind": "dev",
    "methods": {},
    "version": 1
  },
  "userdoc": {
    "kind": "user",
    "methods": {},
    "version": 1
  },
  "storageLayout": {
    "storage": [
      {
        "astId": 3794,
        "contract": "contracts/IndexGeneratorV0.sol:IndexGeneratorV2",
        "label": "indexSize",
        "offset": 0,
        "slot": "0",
        "type": "t_uint256"
      },
      {
        "astId": 3797,
        "contract": "contracts/IndexGeneratorV0.sol:IndexGeneratorV2",
        "label": "counter",
        "offset": 0,
        "slot": "1",
        "type": "t_uint256"
      }
    ],
    "types": {
      "t_uint256": {
        "encoding": "inplace",
        "label": "uint256",
        "numberOfBytes": "32"
      }
    }
  }
}